{
  "contractName": "Crowdsourcing",
  "abi": [
    {
      "anonymous": false,
      "inputs": [
        {
          "indexed": true,
          "internalType": "address",
          "name": "_task",
          "type": "address"
        },
        {
          "indexed": true,
          "internalType": "address",
          "name": "_worker",
          "type": "address"
        },
        {
          "indexed": false,
          "internalType": "string",
          "name": "data",
          "type": "string"
        }
      ],
      "name": "DataSubmitted",
      "type": "event"
    },
    {
      "anonymous": false,
      "inputs": [
        {
          "indexed": true,
          "internalType": "address",
          "name": "_task",
          "type": "address"
        },
        {
          "indexed": true,
          "internalType": "address",
          "name": "_worker",
          "type": "address"
        },
        {
          "indexed": false,
          "internalType": "string",
          "name": "isok",
          "type": "string"
        }
      ],
      "name": "Result",
      "type": "event"
    },
    {
      "anonymous": false,
      "inputs": [
        {
          "indexed": true,
          "internalType": "address",
          "name": "_task",
          "type": "address"
        },
        {
          "indexed": false,
          "internalType": "string",
          "name": "description",
          "type": "string"
        },
        {
          "indexed": false,
          "internalType": "address[]",
          "name": "addrs",
          "type": "address[]"
        },
        {
          "indexed": false,
          "internalType": "uint256[]",
          "name": "workersIncome",
          "type": "uint256[]"
        }
      ],
      "name": "TaskPublished",
      "type": "event"
    },
    {
      "stateMutability": "payable",
      "type": "fallback",
      "payable": true
    },
    {
      "inputs": [
        {
          "internalType": "string",
          "name": "description",
          "type": "string"
        },
        {
          "internalType": "address[]",
          "name": "addrs",
          "type": "address[]"
        },
        {
          "internalType": "uint256[]",
          "name": "workersIncome",
          "type": "uint256[]"
        }
      ],
      "name": "PublishCrowdsourcingTask",
      "outputs": [],
      "stateMutability": "nonpayable",
      "type": "function"
    },
    {
      "inputs": [],
      "name": "WorkerCosts",
      "outputs": [
        {
          "internalType": "address[]",
          "name": "m",
          "type": "address[]"
        },
        {
          "internalType": "uint256[]",
          "name": "u",
          "type": "uint256[]"
        }
      ],
      "stateMutability": "view",
      "type": "function",
      "constant": true
    },
    {
      "inputs": [
        {
          "internalType": "uint256",
          "name": "cost",
          "type": "uint256"
        }
      ],
      "name": "JoinSystem",
      "outputs": [],
      "stateMutability": "nonpayable",
      "type": "function"
    },
    {
      "inputs": [
        {
          "internalType": "address payable",
          "name": "task",
          "type": "address"
        },
        {
          "internalType": "string",
          "name": "data",
          "type": "string"
        }
      ],
      "name": "SubmitData",
      "outputs": [],
      "stateMutability": "nonpayable",
      "type": "function"
    },
    {
      "inputs": [
        {
          "internalType": "address payable",
          "name": "worker",
          "type": "address"
        },
        {
          "internalType": "string",
          "name": "isok",
          "type": "string"
        }
      ],
      "name": "Rewarding",
      "outputs": [],
      "stateMutability": "nonpayable",
      "type": "function"
    }
  ],
  "bytecode": "0x608060405234801561001057600080fd5b506113e2806100206000396000f3fe60806040526004361061004e5760003560e01c80630ff980aa146101a25780631cca24c3146102565780631e45552f1461033e5780635d1d6e571461052e578063867da424146105695761004f565b5b60606040518060400160405280600181526020017f01000000000000000000000000000000000000000000000000000000000000008152509050806040516020018082805190602001908083835b602083106100c0578051825260208201915060208101905060208303925061009d565b6001836020036101000a03801982511681845116808217855250505050505090500191505060405160208183030381529060405280519060200120600036604051602001808383808284378083019250505092505050604051602081830303815290604052805190602001201461019f576040517f08c379a00000000000000000000000000000000000000000000000000000000081526004018080602001828103825260178152602001807f596f752073686f756c642062652072657175657374657200000000000000000081525060200191505060405180910390fd5b50005b3480156101ae57600080fd5b506101b7610651565b604051808060200180602001838103835285818151815260200191508051906020019060200280838360005b838110156101fe5780820151818401526020810190506101e3565b50505050905001838103825284818151815260200191508051906020019060200280838360005b83811015610240578082015181840152602081019050610225565b5050505090500194505050505060405180910390f35b34801561026257600080fd5b5061033c6004803603604081101561027957600080fd5b81019080803573ffffffffffffffffffffffffffffffffffffffff169060200190929190803590602001906401000000008111156102b657600080fd5b8201836020820111156102c857600080fd5b803590602001918460018302840111640100000000831117156102ea57600080fd5b91908080601f016020809104026020016040519081016040528093929190818152602001838380828437600081840152601f19601f820116905080830192505050505050509192919290505050610734565b005b34801561034a57600080fd5b5061052c6004803603606081101561036157600080fd5b810190808035906020019064010000000081111561037e57600080fd5b82018360208201111561039057600080fd5b803590602001918460018302840111640100000000831117156103b257600080fd5b91908080601f016020809104026020016040519081016040528093929190818152602001838380828437600081840152601f19601f8201169050808301925050505050505091929192908035906020019064010000000081111561041557600080fd5b82018360208201111561042757600080fd5b8035906020019184602083028401116401000000008311171561044957600080fd5b919080806020026020016040519081016040528093929190818152602001838360200280828437600081840152601f19601f820116905080830192505050505050509192919290803590602001906401000000008111156104a957600080fd5b8201836020820111156104bb57600080fd5b803590602001918460208302840111640100000000831117156104dd57600080fd5b919080806020026020016040519081016040528093929190818152602001838360200280828437600081840152601f19601f82011690508083019250505050505050919291929050505061099a565b005b34801561053a57600080fd5b506105676004803603602081101561055157600080fd5b8101908080359060200190929190505050610bae565b005b34801561057557600080fd5b5061064f6004803603604081101561058c57600080fd5b81019080803573ffffffffffffffffffffffffffffffffffffffff169060200190929190803590602001906401000000008111156105c957600080fd5b8201836020820111156105db57600080fd5b803590602001918460018302840111640100000000831117156105fd57600080fd5b91908080601f016020809104026020016040519081016040528093929190818152602001838380828437600081840152601f19601f820116905080830192505050505050509192919290505050610c43565b005b60608060008054806020026020016040519081016040528092919081815260200182805480156106d657602002820191906000526020600020905b8160009054906101000a900473ffffffffffffffffffffffffffffffffffffffff1673ffffffffffffffffffffffffffffffffffffffff168152602001906001019080831161068c575b50505050509150600180548060200260200160405190810160405280929190818152602001828054801561072957602002820191906000526020600020905b815481526020019060010190808311610715575b505050505090509091565b60001515600360008473ffffffffffffffffffffffffffffffffffffffff1673ffffffffffffffffffffffffffffffffffffffff16815260200190815260200160002060003373ffffffffffffffffffffffffffffffffffffffff1673ffffffffffffffffffffffffffffffffffffffff16815260200190815260200160002060009054906101000a900460ff16151514610837576040517f08c379a000000000000000000000000000000000000000000000000000000000815260040180806020018281038252601f8152602001807f596f7520616c7265616479207375626d697474656420796f757220646174610081525060200191505060405180910390fd5b6001600360008473ffffffffffffffffffffffffffffffffffffffff1673ffffffffffffffffffffffffffffffffffffffff16815260200190815260200160002060003373ffffffffffffffffffffffffffffffffffffffff1673ffffffffffffffffffffffffffffffffffffffff16815260200190815260200160002060006101000a81548160ff0219169083151502179055503373ffffffffffffffffffffffffffffffffffffffff168273ffffffffffffffffffffffffffffffffffffffff167f504bca834bc17b89032054b41f9725b4f6b5d176e609196212754c6e77c5bc1b836040518080602001828103825283818151815260200191508051906020019080838360005b8381101561095c578082015181840152602081019050610941565b50505050905090810190601f1680156109895780820380516001836020036101000a031916815260200191505b509250505060405180910390a35050565b600033905060008090505b8351811015610a62578281815181106109ba57fe5b6020026020010151600260008473ffffffffffffffffffffffffffffffffffffffff1673ffffffffffffffffffffffffffffffffffffffff1681526020019081526020016000206000868481518110610a0f57fe5b602002602001015173ffffffffffffffffffffffffffffffffffffffff1673ffffffffffffffffffffffffffffffffffffffff1681526020019081526020016000208190555080806001019150506109a5565b508073ffffffffffffffffffffffffffffffffffffffff167f3896c6c5c1654c16c2adb4c97a459d5ef06e51b0d1e6e8cda9b0826dcb90b77385858560405180806020018060200180602001848103845287818151815260200191508051906020019080838360005b83811015610ae6578082015181840152602081019050610acb565b50505050905090810190601f168015610b135780820380516001836020036101000a031916815260200191505b50848103835286818151815260200191508051906020019060200280838360005b83811015610b4f578082015181840152602081019050610b34565b50505050905001848103825285818151815260200191508051906020019060200280838360005b83811015610b91578082015181840152602081019050610b76565b50505050905001965050505050505060405180910390a250505050565b60003390506000819080600181540180825580915050600190039060005260206000200160009091909190916101000a81548173ffffffffffffffffffffffffffffffffffffffff021916908373ffffffffffffffffffffffffffffffffffffffff16021790555060018290806001815401808255809150506001900390600052602060002001600090919091909150555050565b6000600260003373ffffffffffffffffffffffffffffffffffffffff1673ffffffffffffffffffffffffffffffffffffffff16815260200190815260200160002060008473ffffffffffffffffffffffffffffffffffffffff1673ffffffffffffffffffffffffffffffffffffffff168152602001908152602001600020541415610d19576040517f08c379a000000000000000000000000000000000000000000000000000000000815260040180806020018281038252605c815260200180611351605c913960600191505060405180910390fd5b60008090505b600080549050811015610da95760008181548110610d3957fe5b9060005260206000200160009054906101000a900473ffffffffffffffffffffffffffffffffffffffff1673ffffffffffffffffffffffffffffffffffffffff168373ffffffffffffffffffffffffffffffffffffffff161415610d9c57610da9565b8080600101915050610d1f565b6000805490508110610e23576040517f08c379a000000000000000000000000000000000000000000000000000000000815260040180806020018281038252600f8152602001807f4e6f20776f726b657220666f756e64000000000000000000000000000000000081525060200191505060405180910390fd5b610e62826040518060400160405280600681526020017fe59088e6a0bc0000000000000000000000000000000000000000000000000000815250611261565b15610f78578273ffffffffffffffffffffffffffffffffffffffff166108fc612710600260003373ffffffffffffffffffffffffffffffffffffffff1673ffffffffffffffffffffffffffffffffffffffff16815260200190815260200160002060008773ffffffffffffffffffffffffffffffffffffffff1673ffffffffffffffffffffffffffffffffffffffff16815260200190815260200160002054029081150290604051600060405180830381858888f19350505050158015610f2d573d6000803e3d6000fd5b506001808281548110610f3c57fe5b90600052602060002001541115610f73576001808281548110610f5b57fe5b90600052602060002001600082825403925050819055505b611086565b3373ffffffffffffffffffffffffffffffffffffffff166108fc612710600260003373ffffffffffffffffffffffffffffffffffffffff1673ffffffffffffffffffffffffffffffffffffffff16815260200190815260200160002060008773ffffffffffffffffffffffffffffffffffffffff1673ffffffffffffffffffffffffffffffffffffffff16815260200190815260200160002054029081150290604051600060405180830381858888f1935050505015801561103e573d6000803e3d6000fd5b50600a6001828154811061104e57fe5b9060005260206000200154101561108557600180828154811061106d57fe5b90600052602060002001600082825401925050819055505b5b8273ffffffffffffffffffffffffffffffffffffffff163373ffffffffffffffffffffffffffffffffffffffff167fd8398c960a050e9673679f5763b9ff966f8625cd3a4fbb82d99060363ca5c11e846040518080602001828103825283818151815260200191508051906020019080838360005b838110156111165780820151818401526020810190506110fb565b50505050905090810190601f1680156111435780820380516001836020036101000a031916815260200191505b509250505060405180910390a3600260003373ffffffffffffffffffffffffffffffffffffffff1673ffffffffffffffffffffffffffffffffffffffff16815260200190815260200160002060008473ffffffffffffffffffffffffffffffffffffffff1673ffffffffffffffffffffffffffffffffffffffff16815260200190815260200160002060009055600360003373ffffffffffffffffffffffffffffffffffffffff1673ffffffffffffffffffffffffffffffffffffffff16815260200190815260200160002060008473ffffffffffffffffffffffffffffffffffffffff1673ffffffffffffffffffffffffffffffffffffffff16815260200190815260200160002060006101000a81549060ff0219169055505050565b6000816040516020018082805190602001908083835b6020831061129a5780518252602082019150602081019050602083039250611277565b6001836020036101000a03801982511681845116808217855250505050505090500191505060405160208183030381529060405280519060200120836040516020018082805190602001908083835b6020831061130c57805182526020820191506020810190506020830392506112e9565b6001836020036101000a038019825116818451168082178552505050505050905001915050604051602081830303815290604052805190602001201490509291505056fe4f6e6c79207265717565737465722063616e2063616c6c207468697320746f20776f726b6572732077686f207061727469636970616e747320697473207461736b20616e6420686173206e6f74206265656e2072657761726465642ea2646970667358221220404277fa31fd2e126d4d9970bf52d5840994eee55ed5be4971bc23bae69438c864736f6c63430006020033",
  "source": "pragma solidity >=0.6.0 <0.8.0;\n\n// 主要负责处理Workers和Requesters之间的关系\ncontract Crowdsourcing {\n    // 工人的列表\n    address[] workers;\n    // 保存工人们的成本\n    uint[] costOfWorkers;\n    // 确保每个任务都有其对应的workers，在进行奖励分发的时候使用\n    mapping(address => mapping(address => uint)) workerAwards;\n    // 每个worker是否进行了数据上传\n    mapping(address => mapping(address => bool)) dataSubmitted;\n    // 负责在特定条件下用来进行交互的Event，进行交易的触发\n    event TaskPublished(address indexed _task, string description, address[] addrs, uint[] workersIncome);\n    event Result(address indexed _task, address indexed _worker, string isok);\n    event DataSubmitted(address indexed _task, address indexed _worker, string data);\n\n    // 接收发包者的激励金额\n    // 用CALLDATA测试这个函数\n    // receive()当向合约发送Ether且未指定调用任何函数(calldata 为空)时执行。\n    fallback() external payable {\n        bytes memory requester = hex\"01\";\n        require(keccak256(abi.encodePacked(msg.data)) == keccak256(abi.encodePacked(requester)), \n            \"You should be requester\");\n    }\n\n    // 创建一个新的众包任务，同时该函数会发出一个新的Event表示任务已经创建成功\n    function PublishCrowdsourcingTask(string memory description, address[] memory addrs, uint[] memory workersIncome) public {\n        // 对任务的信息进行记录\n        address requester = msg.sender;\n        for(uint i = 0; i < addrs.length; i++) {\n            workerAwards[requester][addrs[i]] = workersIncome[i];\n        }\n        // 任务发布\n        emit TaskPublished(requester, description, addrs, workersIncome);\n    }\n    // 返回所有Workers的成本\n    function WorkerCosts() public view returns (address[] memory m, uint[] memory u) {\n        m = workers;\n        u = costOfWorkers;\n    }\n    /** \n    * Workers注册到系统\n    **/\n    function JoinSystem(uint cost) public {\n        address worker = msg.sender;\n        workers.push(worker);\n        costOfWorkers.push(cost);\n    }\n    /**\n    * Workers进行任务上传\n    */\n    function SubmitData(address payable task, string memory data) public {\n        require(dataSubmitted[task][msg.sender] == false, \"You already submitted your data\");\n        dataSubmitted[task][msg.sender] = true;\n        // \n        emit DataSubmitted(task, msg.sender, data); \n    }\n    /**\n    * 进行任务奖励\n    */\n    function Rewarding(address payable worker, string memory isok) public {\n        // 只有Requester才能调用此信息\n        require(workerAwards[msg.sender][worker] != 0, \"Only requester can call this to workers who participants its task and has not been rewarded.\");\n        uint i;\n        for(i = 0; i < workers.length; i++){\n            if (worker == workers[i]) {\n                break;\n            }\n        }\n        require(i < workers.length, \"No worker found\");\n        if (hashCompareInternal(isok, \"合格\")) {\n            worker.transfer(workerAwards[msg.sender][worker] * 10**4);// transfer默认单位是Wei\n            if (costOfWorkers[i] > 1) {\n                costOfWorkers[i] -= 1;\n            }\n        }\n        else {\n            msg.sender.transfer(workerAwards[msg.sender][worker] * 10**4); // 把金额退回发包者\n            if (costOfWorkers[i] < 10) {\n                costOfWorkers[i] += 1;\n            }\n        }\n        emit Result(msg.sender, worker, isok);\n        // 奖励已经发出，现在清除其状态\n        delete workerAwards[msg.sender][worker];\n        delete dataSubmitted[msg.sender][worker];\n    }\n    // 字符串比较函数\n    function hashCompareInternal(string memory a, string memory b) internal pure returns (bool) {\n        return keccak256(abi.encodePacked(a)) == keccak256(abi.encodePacked(b));\n    }\n}",
  "sourcePath": "D:\\dapps\\Crowdsourcing\\contracts\\Crowdsourcing.sol",
  "compiler": {
    "name": "solc",
    "version": "0.6.2+commit.bacdbe57.Emscripten.clang"
  },
  "schemaVersion": "3.4.6",
  "updatedAt": "2022-05-29T01:10:53.391Z",
  "networkType": "ethereum",
  "devdoc": {
    "methods": {}
  },
  "userdoc": {
    "methods": {
      "JoinSystem(uint256)": {
        "notice": "Workers注册到系统*"
      },
      "Rewarding(address,string)": {
        "notice": "进行任务奖励"
      },
      "SubmitData(address,string)": {
        "notice": "Workers进行任务上传"
      }
    }
  }
}